{
  "abi": [
    {
      "inputs": [
        {
          "internalType": "contract IERC20",
          "name": "balLSD_",
          "type": "address"
        },
        {
          "internalType": "contract IERC20",
          "name": "crvLSD_",
          "type": "address"
        },
        {
          "internalType": "contract IMasterPool",
          "name": "ydLSD_",
          "type": "address"
        }
      ],
      "stateMutability": "nonpayable",
      "type": "constructor"
    },
    {
      "anonymous": false,
      "inputs": [
        {
          "indexed": true,
          "internalType": "address",
          "name": "caller",
          "type": "address"
        },
        {
          "indexed": false,
          "internalType": "uint256",
          "name": "assets",
          "type": "uint256"
        },
        {
          "indexed": false,
          "internalType": "uint256",
          "name": "shares",
          "type": "uint256"
        }
      ],
      "name": "Deposit",
      "type": "event"
    },
    {
      "anonymous": false,
      "inputs": [
        {
          "indexed": true,
          "internalType": "address",
          "name": "caller",
          "type": "address"
        },
        {
          "indexed": false,
          "internalType": "uint256",
          "name": "assets",
          "type": "uint256"
        },
        {
          "indexed": false,
          "internalType": "uint256",
          "name": "shares",
          "type": "uint256"
        }
      ],
      "name": "Withdraw",
      "type": "event"
    },
    {
      "inputs": [],
      "name": "approveTokens",
      "outputs": [],
      "stateMutability": "nonpayable",
      "type": "function"
    },
    {
      "inputs": [],
      "name": "balLSD",
      "outputs": [
        {
          "internalType": "contract IERC20",
          "name": "",
          "type": "address"
        }
      ],
      "stateMutability": "view",
      "type": "function"
    },
    {
      "inputs": [],
      "name": "crvLSD",
      "outputs": [
        {
          "internalType": "contract IERC20",
          "name": "",
          "type": "address"
        }
      ],
      "stateMutability": "view",
      "type": "function"
    },
    {
      "inputs": [],
      "name": "deposit",
      "outputs": [
        {
          "internalType": "uint256",
          "name": "shares",
          "type": "uint256"
        }
      ],
      "stateMutability": "payable",
      "type": "function"
    },
    {
      "inputs": [
        {
          "internalType": "uint256",
          "name": "shares",
          "type": "uint256"
        }
      ],
      "name": "redeem",
      "outputs": [
        {
          "internalType": "uint256",
          "name": "amount",
          "type": "uint256"
        }
      ],
      "stateMutability": "nonpayable",
      "type": "function"
    },
    {
      "inputs": [],
      "name": "ydLSD",
      "outputs": [
        {
          "internalType": "contract IMasterPool",
          "name": "",
          "type": "address"
        }
      ],
      "stateMutability": "view",
      "type": "function"
    },
    {
      "stateMutability": "payable",
      "type": "receive"
    }
  ],
  "bytecode": {
    "object": "0x608060405234801561001057600080fd5b506040516105f63803806105f683398101604081905261002f91610089565b600080546001600160a01b039485166001600160a01b0319918216179091556001805493851693821693909317909255600280549190931691161790556100d6565b6001600160a01b038116811461008657600080fd5b50565b60008060006060848603121561009e57600080fd5b83516100a981610071565b60208501519093506100ba81610071565b60408501519092506100cb81610071565b809150509250925092565b610511806100e56000396000f3fe6080604052600436106100595760003560e01c80636c8b86a61461006d578063bd623925146100aa578063cdb64617146100ca578063d0e30db0146100ea578063db006a7514610100578063fd68f2231461012057600080fd5b3661006857610066610135565b005b600080fd5b34801561007957600080fd5b5060025461008d906001600160a01b031681565b6040516001600160a01b0390911681526020015b60405180910390f35b3480156100b657600080fd5b5060015461008d906001600160a01b031681565b3480156100d657600080fd5b5060005461008d906001600160a01b031681565b6100f2610135565b6040519081526020016100a1565b34801561010c57600080fd5b506100f261011b36600461045c565b610238565b34801561012c57600080fd5b50610066610364565b600080341161017c5760405162461bcd60e51b815260206004820152600e60248201526d06d73672e76616c756520697320360941b60448201526064015b60405180910390fd5b6002546040516321ec87bf60e21b8152346004820181905260248201523360448201526001600160a01b03909116906387b21efc906064016020604051808303816000875af11580156101d3573d6000803e3d6000fd5b505050506040513d601f19601f820116820180604052508101906101f79190610475565b604080513481526020810183905291925033917f90890809c654f11d6e72a28fa60149770a0d11ec6c92319d6ceb2bb0a4ea1a15910160405180910390a290565b60008082116102775760405162461bcd60e51b815260206004820152600b60248201526a073686172657320697320360ac1b6044820152606401610173565b600254604051633cc6af3160e21b815260048101849052336024820181905260448201526001600160a01b039091169063f31abcc49060640160408051808303816000875af11580156102ce573d6000803e3d6000fd5b505050506040513d601f19601f820116820180604052508101906102f2919061048e565b50604051909150339082156108fc029083906000818181858888f19350505050158015610323573d6000803e3d6000fd5b50604080518281526020810184905233917ff279e6a1f5e320cca91135676d9cb6e44ca8a08c0b88342bcdb1144f6511b568910160405180910390a2919050565b60005460025460405163095ea7b360e01b81526001600160a01b039182166004820152600019602482015291169063095ea7b3906044016020604051808303816000875af11580156103ba573d6000803e3d6000fd5b505050506040513d601f19601f820116820180604052508101906103de91906104b2565b5060015460025460405163095ea7b360e01b81526001600160a01b039182166004820152600019602482015291169063095ea7b3906044016020604051808303816000875af1158015610435573d6000803e3d6000fd5b505050506040513d601f19601f8201168201806040525081019061045991906104b2565b50565b60006020828403121561046e57600080fd5b5035919050565b60006020828403121561048757600080fd5b5051919050565b600080604083850312156104a157600080fd5b505080516020909101519092909150565b6000602082840312156104c457600080fd5b815180151581146104d457600080fd5b939250505056fea2646970667358221220a47b316f094ef668d6c7a2811b7abd0abd1799645bd031fcf953f64776e07e6f64736f6c63430008110033",
    "linkReferences": {}
  },
  "methodIdentifiers": {
    "approveTokens()": "fd68f223",
    "balLSD()": "cdb64617",
    "crvLSD()": "bd623925",
    "deposit()": "d0e30db0",
    "redeem(uint256)": "db006a75",
    "ydLSD()": "6c8b86a6"
  },
  "id": 25
}