{
  "abi": [
    {
      "inputs": [
        {
          "internalType": "contract IERC20",
          "name": "asset0_",
          "type": "address"
        },
        {
          "internalType": "contract IERC20",
          "name": "asset1_",
          "type": "address"
        },
        {
          "internalType": "string",
          "name": "name_",
          "type": "string"
        },
        {
          "internalType": "string",
          "name": "symbol_",
          "type": "string"
        }
      ],
      "stateMutability": "nonpayable",
      "type": "constructor"
    },
    {
      "anonymous": false,
      "inputs": [
        {
          "indexed": true,
          "internalType": "address",
          "name": "caller",
          "type": "address"
        },
        {
          "indexed": true,
          "internalType": "address",
          "name": "receiver",
          "type": "address"
        },
        {
          "indexed": false,
          "internalType": "uint256",
          "name": "amount0",
          "type": "uint256"
        },
        {
          "indexed": false,
          "internalType": "uint256",
          "name": "amount1",
          "type": "uint256"
        },
        {
          "indexed": false,
          "internalType": "uint256",
          "name": "shares",
          "type": "uint256"
        }
      ],
      "name": "AddLiquidity",
      "type": "event"
    },
    {
      "anonymous": false,
      "inputs": [
        {
          "indexed": true,
          "internalType": "address",
          "name": "owner",
          "type": "address"
        },
        {
          "indexed": true,
          "internalType": "address",
          "name": "spender",
          "type": "address"
        },
        {
          "indexed": false,
          "internalType": "uint256",
          "name": "amount",
          "type": "uint256"
        }
      ],
      "name": "Approval",
      "type": "event"
    },
    {
      "anonymous": false,
      "inputs": [
        {
          "indexed": true,
          "internalType": "address",
          "name": "caller",
          "type": "address"
        },
        {
          "indexed": true,
          "internalType": "address",
          "name": "receiver",
          "type": "address"
        },
        {
          "indexed": true,
          "internalType": "address",
          "name": "owner",
          "type": "address"
        },
        {
          "indexed": false,
          "internalType": "uint256",
          "name": "amount0",
          "type": "uint256"
        },
        {
          "indexed": false,
          "internalType": "uint256",
          "name": "amount1",
          "type": "uint256"
        },
        {
          "indexed": false,
          "internalType": "uint256",
          "name": "shares",
          "type": "uint256"
        }
      ],
      "name": "RemoveLiquidity",
      "type": "event"
    },
    {
      "anonymous": false,
      "inputs": [
        {
          "indexed": true,
          "internalType": "address",
          "name": "caller",
          "type": "address"
        },
        {
          "indexed": true,
          "internalType": "address",
          "name": "receiver",
          "type": "address"
        },
        {
          "indexed": false,
          "internalType": "uint256",
          "name": "amount0In",
          "type": "uint256"
        },
        {
          "indexed": false,
          "internalType": "uint256",
          "name": "amount1In",
          "type": "uint256"
        },
        {
          "indexed": false,
          "internalType": "uint256",
          "name": "amount0Out",
          "type": "uint256"
        },
        {
          "indexed": false,
          "internalType": "uint256",
          "name": "amount1Out",
          "type": "uint256"
        }
      ],
      "name": "Swap",
      "type": "event"
    },
    {
      "anonymous": false,
      "inputs": [
        {
          "indexed": true,
          "internalType": "address",
          "name": "from",
          "type": "address"
        },
        {
          "indexed": true,
          "internalType": "address",
          "name": "to",
          "type": "address"
        },
        {
          "indexed": false,
          "internalType": "uint256",
          "name": "amount",
          "type": "uint256"
        }
      ],
      "name": "Transfer",
      "type": "event"
    },
    {
      "inputs": [],
      "name": "DOMAIN_SEPARATOR",
      "outputs": [
        {
          "internalType": "bytes32",
          "name": "",
          "type": "bytes32"
        }
      ],
      "stateMutability": "view",
      "type": "function"
    },
    {
      "inputs": [
        {
          "internalType": "uint256",
          "name": "amount0",
          "type": "uint256"
        },
        {
          "internalType": "uint256",
          "name": "amount1",
          "type": "uint256"
        },
        {
          "internalType": "address",
          "name": "receiver",
          "type": "address"
        }
      ],
      "name": "addLiquidity",
      "outputs": [
        {
          "internalType": "uint256",
          "name": "shares",
          "type": "uint256"
        }
      ],
      "stateMutability": "nonpayable",
      "type": "function"
    },
    {
      "inputs": [
        {
          "internalType": "address",
          "name": "",
          "type": "address"
        },
        {
          "internalType": "address",
          "name": "",
          "type": "address"
        }
      ],
      "name": "allowance",
      "outputs": [
        {
          "internalType": "uint256",
          "name": "",
          "type": "uint256"
        }
      ],
      "stateMutability": "view",
      "type": "function"
    },
    {
      "inputs": [
        {
          "internalType": "address",
          "name": "spender",
          "type": "address"
        },
        {
          "internalType": "uint256",
          "name": "amount",
          "type": "uint256"
        }
      ],
      "name": "approve",
      "outputs": [
        {
          "internalType": "bool",
          "name": "",
          "type": "bool"
        }
      ],
      "stateMutability": "nonpayable",
      "type": "function"
    },
    {
      "inputs": [],
      "name": "asset0",
      "outputs": [
        {
          "internalType": "contract IERC20",
          "name": "",
          "type": "address"
        }
      ],
      "stateMutability": "view",
      "type": "function"
    },
    {
      "inputs": [],
      "name": "asset1",
      "outputs": [
        {
          "internalType": "contract IERC20",
          "name": "",
          "type": "address"
        }
      ],
      "stateMutability": "view",
      "type": "function"
    },
    {
      "inputs": [
        {
          "internalType": "address",
          "name": "",
          "type": "address"
        }
      ],
      "name": "balanceOf",
      "outputs": [
        {
          "internalType": "uint256",
          "name": "",
          "type": "uint256"
        }
      ],
      "stateMutability": "view",
      "type": "function"
    },
    {
      "inputs": [],
      "name": "decimals",
      "outputs": [
        {
          "internalType": "uint8",
          "name": "",
          "type": "uint8"
        }
      ],
      "stateMutability": "view",
      "type": "function"
    },
    {
      "inputs": [],
      "name": "name",
      "outputs": [
        {
          "internalType": "string",
          "name": "",
          "type": "string"
        }
      ],
      "stateMutability": "view",
      "type": "function"
    },
    {
      "inputs": [
        {
          "internalType": "address",
          "name": "",
          "type": "address"
        }
      ],
      "name": "nonces",
      "outputs": [
        {
          "internalType": "uint256",
          "name": "",
          "type": "uint256"
        }
      ],
      "stateMutability": "view",
      "type": "function"
    },
    {
      "inputs": [
        {
          "internalType": "address",
          "name": "owner",
          "type": "address"
        },
        {
          "internalType": "address",
          "name": "spender",
          "type": "address"
        },
        {
          "internalType": "uint256",
          "name": "value",
          "type": "uint256"
        },
        {
          "internalType": "uint256",
          "name": "deadline",
          "type": "uint256"
        },
        {
          "internalType": "uint8",
          "name": "v",
          "type": "uint8"
        },
        {
          "internalType": "bytes32",
          "name": "r",
          "type": "bytes32"
        },
        {
          "internalType": "bytes32",
          "name": "s",
          "type": "bytes32"
        }
      ],
      "name": "permit",
      "outputs": [],
      "stateMutability": "nonpayable",
      "type": "function"
    },
    {
      "inputs": [
        {
          "internalType": "uint256",
          "name": "shares",
          "type": "uint256"
        },
        {
          "internalType": "address",
          "name": "receiver",
          "type": "address"
        },
        {
          "internalType": "address",
          "name": "owner",
          "type": "address"
        }
      ],
      "name": "removeLiquidity",
      "outputs": [
        {
          "internalType": "uint256",
          "name": "amount0",
          "type": "uint256"
        },
        {
          "internalType": "uint256",
          "name": "amount1",
          "type": "uint256"
        }
      ],
      "stateMutability": "nonpayable",
      "type": "function"
    },
    {
      "inputs": [],
      "name": "reserve0",
      "outputs": [
        {
          "internalType": "uint256",
          "name": "",
          "type": "uint256"
        }
      ],
      "stateMutability": "view",
      "type": "function"
    },
    {
      "inputs": [],
      "name": "reserve1",
      "outputs": [
        {
          "internalType": "uint256",
          "name": "",
          "type": "uint256"
        }
      ],
      "stateMutability": "view",
      "type": "function"
    },
    {
      "inputs": [],
      "name": "reth",
      "outputs": [
        {
          "internalType": "contract IERC20",
          "name": "",
          "type": "address"
        }
      ],
      "stateMutability": "view",
      "type": "function"
    },
    {
      "inputs": [],
      "name": "sfrxeth",
      "outputs": [
        {
          "internalType": "contract IERC20",
          "name": "",
          "type": "address"
        }
      ],
      "stateMutability": "view",
      "type": "function"
    },
    {
      "inputs": [
        {
          "internalType": "uint256",
          "name": "shares",
          "type": "uint256"
        }
      ],
      "name": "sharesToAssets",
      "outputs": [
        {
          "internalType": "uint256",
          "name": "assets",
          "type": "uint256"
        }
      ],
      "stateMutability": "pure",
      "type": "function"
    },
    {
      "inputs": [
        {
          "internalType": "uint256",
          "name": "shares",
          "type": "uint256"
        }
      ],
      "name": "sharesToUnderlyingAssets",
      "outputs": [
        {
          "internalType": "uint256[]",
          "name": "assets",
          "type": "uint256[]"
        }
      ],
      "stateMutability": "pure",
      "type": "function"
    },
    {
      "inputs": [
        {
          "internalType": "uint256",
          "name": "amount0In",
          "type": "uint256"
        },
        {
          "internalType": "uint256",
          "name": "amount1In",
          "type": "uint256"
        },
        {
          "internalType": "address",
          "name": "to",
          "type": "address"
        }
      ],
      "name": "swap",
      "outputs": [],
      "stateMutability": "nonpayable",
      "type": "function"
    },
    {
      "inputs": [],
      "name": "symbol",
      "outputs": [
        {
          "internalType": "string",
          "name": "",
          "type": "string"
        }
      ],
      "stateMutability": "view",
      "type": "function"
    },
    {
      "inputs": [],
      "name": "syncReserves",
      "outputs": [],
      "stateMutability": "nonpayable",
      "type": "function"
    },
    {
      "inputs": [],
      "name": "totalAssets",
      "outputs": [
        {
          "internalType": "uint256",
          "name": "assets",
          "type": "uint256"
        }
      ],
      "stateMutability": "view",
      "type": "function"
    },
    {
      "inputs": [],
      "name": "totalReserves",
      "outputs": [
        {
          "internalType": "uint256",
          "name": "_reserve0",
          "type": "uint256"
        },
        {
          "internalType": "uint256",
          "name": "_reserve1",
          "type": "uint256"
        }
      ],
      "stateMutability": "view",
      "type": "function"
    },
    {
      "inputs": [],
      "name": "totalSupply",
      "outputs": [
        {
          "internalType": "uint256",
          "name": "",
          "type": "uint256"
        }
      ],
      "stateMutability": "view",
      "type": "function"
    },
    {
      "inputs": [
        {
          "internalType": "address",
          "name": "to",
          "type": "address"
        },
        {
          "internalType": "uint256",
          "name": "amount",
          "type": "uint256"
        }
      ],
      "name": "transfer",
      "outputs": [
        {
          "internalType": "bool",
          "name": "",
          "type": "bool"
        }
      ],
      "stateMutability": "nonpayable",
      "type": "function"
    },
    {
      "inputs": [
        {
          "internalType": "address",
          "name": "from",
          "type": "address"
        },
        {
          "internalType": "address",
          "name": "to",
          "type": "address"
        },
        {
          "internalType": "uint256",
          "name": "amount",
          "type": "uint256"
        }
      ],
      "name": "transferFrom",
      "outputs": [
        {
          "internalType": "bool",
          "name": "",
          "type": "bool"
        }
      ],
      "stateMutability": "nonpayable",
      "type": "function"
    },
    {
      "inputs": [],
      "name": "wsteth",
      "outputs": [
        {
          "internalType": "contract IERC20",
          "name": "",
          "type": "address"
        }
      ],
      "stateMutability": "view",
      "type": "function"
    }
  ],
  "bytecode": {
    "object": "0x610120604052600880546001600160a01b0319908116737f39c581f595b53c5cb19bd0b3f8da6c935e2ca01790915560098054821673ae78736cd615f374d3085123a210448e74fc6393179055600a805490911673ac3e018457b222d93114458476f3e3416abbe38f1790553480156200007857600080fd5b5060405162001e9838038062001e988339810160408190526200009b9162000271565b818160126000620000ad848262000390565b506001620000bc838262000390565b5060ff81166080524660a052620000d2620000f3565b60c0525050506001600160a01b0393841660e05250501661010052620004da565b60007f8b73c3c69bb8fe3d512ecc4cf759cc79239f7b179b0ffacaa9a75d522b39400f60006040516200012791906200045c565b6040805191829003822060208301939093528101919091527fc89efdaa54c0f20c7adf612882df0950f5a951637e0307cdcb4c672f298b8bc660608201524660808201523060a082015260c00160405160208183030381529060405280519060200120905090565b80516001600160a01b0381168114620001a757600080fd5b919050565b634e487b7160e01b600052604160045260246000fd5b600082601f830112620001d457600080fd5b81516001600160401b0380821115620001f157620001f1620001ac565b604051601f8301601f19908116603f011681019082821181831017156200021c576200021c620001ac565b816040528381526020925086838588010111156200023957600080fd5b600091505b838210156200025d57858201830151818301840152908201906200023e565b600093810190920192909252949350505050565b600080600080608085870312156200028857600080fd5b62000293856200018f565b9350620002a3602086016200018f565b60408601519093506001600160401b0380821115620002c157600080fd5b620002cf88838901620001c2565b93506060870151915080821115620002e657600080fd5b50620002f587828801620001c2565b91505092959194509250565b600181811c908216806200031657607f821691505b6020821081036200033757634e487b7160e01b600052602260045260246000fd5b50919050565b601f8211156200038b57600081815260208120601f850160051c81016020861015620003665750805b601f850160051c820191505b81811015620003875782815560010162000372565b5050505b505050565b81516001600160401b03811115620003ac57620003ac620001ac565b620003c481620003bd845462000301565b846200033d565b602080601f831160018114620003fc5760008415620003e35750858301515b600019600386901b1c1916600185901b17855562000387565b600085815260208120601f198616915b828110156200042d578886015182559484019460019091019084016200040c565b50858210156200044c5787850151600019600388901b60f8161c191681555b5050505050600190811b01905550565b60008083546200046c8162000301565b600182811680156200048757600181146200049d57620004ce565b60ff1984168752821515830287019450620004ce565b8760005260208060002060005b85811015620004c55781548a820152908401908201620004aa565b50505082870194505b50929695505050505050565b60805160a05160c05160e0516101005161193362000565600039600081816102d2015281816107fe01528181610a5d01528181610ae701528181610df0015261128c0152600081816103a101528181610773015281816109ba01528181610b8a01528181610d5c01526111f80152600061073c015260006107070152600061024201526119336000f3fe608060405234801561001057600080fd5b50600436106101a95760003560e01c80637cd5f3f9116100f9578063a9059cbb11610097578063d505accf11610071578063d505accf146103d6578063dd62ed3e146103e9578063f31abcc414610414578063f5a991d71461042757600080fd5b8063a9059cbb14610389578063c509b6a21461039c578063d1d8bce7146103c357600080fd5b806387b21efc116100d357806387b21efc1461033f5780638f840ddd1461035257806395d89b411461036e578063a07311af1461037657600080fd5b80637cd5f3f9146102cd5780637ecebe001461030c5780637fe0c8501461032c57600080fd5b8063313ce567116101665780635249f13e116101405780635249f13e146102875780635a76f25e146102915780636d9a640a1461029a57806370a08231146102ad57600080fd5b8063313ce5671461023d5780633644e51514610276578063443cb4bc1461027e57600080fd5b806301e1d114146101ae57806306fdde03146101c9578063095ea7b3146101de5780630d94e0ae1461020157806318160ddd1461022157806323b872dd1461022a575b600080fd5b6101b661043a565b6040519081526020015b60405180910390f35b6101d161046d565b6040516101c091906114bd565b6101f16101ec366004611527565b6104fb565b60405190151581526020016101c0565b61021461020f366004611551565b610568565b6040516101c0919061156a565b6101b660025481565b6101f16102383660046115ae565b610623565b6102647f000000000000000000000000000000000000000000000000000000000000000081565b60405160ff90911681526020016101c0565b6101b6610703565b6101b660065481565b61028f61075e565b005b6101b660075481565b61028f6102a83660046115ea565b610876565b6101b66102bb36600461161f565b60036020526000908152604090205481565b6102f47f000000000000000000000000000000000000000000000000000000000000000081565b6040516001600160a01b0390911681526020016101c0565b6101b661031a36600461161f565b60056020526000908152604090205481565b6101b661033a366004611551565b610c5d565b6101b661034d3660046115ea565b610c6a565b6006546007545b604080519283526020830191909152016101c0565b6101d1610ed4565b600a546102f4906001600160a01b031681565b6101f1610397366004611527565b610ee1565b6102f47f000000000000000000000000000000000000000000000000000000000000000081565b6008546102f4906001600160a01b031681565b61028f6103e4366004611641565b610f47565b6101b66103f73660046116b4565b600460209081526000928352604080842090915290825290205481565b6103596104223660046116e7565b61118b565b6009546102f4906001600160a01b031681565b600080600061044c6006546007549091565b909250905061045b8183611730565b610466906003611743565b9250505090565b6000805461047a9061175a565b80601f01602080910402602001604051908101604052809291908181526020018280546104a69061175a565b80156104f35780601f106104c8576101008083540402835291602001916104f3565b820191906000526020600020905b8154815290600101906020018083116104d657829003601f168201915b505050505081565b3360008181526004602090815260408083206001600160a01b038716808552925280832085905551919290917f8c5be1e5ebec7d5bd14f71427d1e84f3dd0314c0f7b2291e5b200ac8c7c3b925906105569086815260200190565b60405180910390a35060015b92915050565b604080516003808252608082019092526060916020820183803683370190505090506002610597836003611743565b6105a19190611794565b816000815181106105b4576105b46117b6565b602090810291909101015260026105cc836003611743565b6105d69190611794565b816001815181106105e9576105e96117b6565b60209081029190910101526105ff826003611743565b81600281518110610612576106126117b6565b602002602001018181525050919050565b6001600160a01b0383166000908152600460209081526040808320338452909152812054600019811461067f5761065a83826117cc565b6001600160a01b03861660009081526004602090815260408083203384529091529020555b6001600160a01b038516600090815260036020526040812080548592906106a79084906117cc565b90915550506001600160a01b03808516600081815260036020526040908190208054870190555190918716906000805160206118de833981519152906106f09087815260200190565b60405180910390a3506001949350505050565b60007f0000000000000000000000000000000000000000000000000000000000000000461461073957610734611367565b905090565b507f000000000000000000000000000000000000000000000000000000000000000090565b6040516370a0823160e01b81523060048201527f00000000000000000000000000000000000000000000000000000000000000006001600160a01b0316906370a0823190602401602060405180830381865afa1580156107c2573d6000803e3d6000fd5b505050506040513d601f19601f820116820180604052508101906107e691906117df565b6006556040516370a0823160e01b81523060048201527f00000000000000000000000000000000000000000000000000000000000000006001600160a01b0316906370a0823190602401602060405180830381865afa15801561084d573d6000803e3d6000fd5b505050506040513d601f19601f8201168201806040525081019061087191906117df565b600755565b6000600654118061088957506000600754115b6108c75760405162461bcd60e51b815260206004820152600a602482015269706f6f6c20656d70747960b01b60448201526064015b60405180910390fd5b821561091a5781156109155760405162461bcd60e51b815260206004820152601760248201527618d85b881bdb9b1e481a185d99481bdb99481a5b9c1d5d604a1b60448201526064016108be565b61099b565b81156109685782156109155760405162461bcd60e51b815260206004820152601760248201527618d85b881bdb9b1e481a185d99481bdb99481a5b9c1d5d604a1b60448201526064016108be565b60405162461bcd60e51b81526020600482015260086024820152671b9bc81a5b9c1d5d60c21b60448201526064016108be565b81838015610ad0576040516323b872dd60e01b81526001600160a01b037f000000000000000000000000000000000000000000000000000000000000000016906323b872dd906109f390339030908a906004016117f8565b6020604051808303816000875af1158015610a12573d6000803e3d6000fd5b505050506040513d601f19601f82011682018060405250810190610a36919061181c565b5060405163a9059cbb60e01b81526001600160a01b038481166004830152602482018390527f0000000000000000000000000000000000000000000000000000000000000000169063a9059cbb906044016020604051808303816000875af1158015610aa6573d6000803e3d6000fd5b505050506040513d601f19601f82011682018060405250810190610aca919061181c565b50610bf9565b6040516323b872dd60e01b81526001600160a01b037f000000000000000000000000000000000000000000000000000000000000000016906323b872dd90610b20903390309089906004016117f8565b6020604051808303816000875af1158015610b3f573d6000803e3d6000fd5b505050506040513d601f19601f82011682018060405250810190610b63919061181c565b5060405163a9059cbb60e01b81526001600160a01b038481166004830152602482018490527f0000000000000000000000000000000000000000000000000000000000000000169063a9059cbb906044016020604051808303816000875af1158015610bd3573d6000803e3d6000fd5b505050506040513d601f19601f82011682018060405250810190610bf7919061181c565b505b610c0161075e565b6040805186815260208101869052908101839052606081018290526001600160a01b0384169033907fb3e2773606abfd36b5bd91394b3a54d1398336c65005baf7bf7a05efeffaf75b9060800160405180910390a35050505050565b6000610562826006611743565b6000808411610caa5760405162461bcd60e51b815260206004820152600c60248201526b0616d6f756e743020697320360a41b60448201526064016108be565b60008311610ce95760405162461bcd60e51b815260206004820152600c60248201526b0616d6f756e743120697320360a41b60448201526064016108be565b828414610d425760405162461bcd60e51b815260206004820152602160248201527f616d6f756e743020616e6420616d6f756e7431206d75737420626520657175616044820152601b60fa1b60648201526084016108be565b506040516323b872dd60e01b815283906001600160a01b037f000000000000000000000000000000000000000000000000000000000000000016906323b872dd90610d95903390309086906004016117f8565b6020604051808303816000875af1158015610db4573d6000803e3d6000fd5b505050506040513d601f19601f82011682018060405250810190610dd8919061181c565b506040516323b872dd60e01b81526001600160a01b037f000000000000000000000000000000000000000000000000000000000000000016906323b872dd90610e29903390309088906004016117f8565b6020604051808303816000875af1158015610e48573d6000803e3d6000fd5b505050506040513d601f19601f82011682018060405250810190610e6c919061181c565b50610e778282611401565b610e7f61075e565b60408051858152602081018590529081018290526001600160a01b0383169033907f2f3289d16dbc3007471d28c4936df3a95222bc938112449400d049637e3309ce9060600160405180910390a39392505050565b6001805461047a9061175a565b33600090815260036020526040812080548391908390610f029084906117cc565b90915550506001600160a01b038316600081815260036020526040908190208054850190555133906000805160206118de833981519152906105569086815260200190565b42841015610f975760405162461bcd60e51b815260206004820152601760248201527f5045524d49545f444541444c494e455f4558504952454400000000000000000060448201526064016108be565b60006001610fa3610703565b6001600160a01b038a811660008181526005602090815260409182902080546001810190915582517f6e71edae12b1b97f4d1f60370fef10105fa2faae0126114a169c64845d6126c98184015280840194909452938d166060840152608083018c905260a083019390935260c08083018b90528151808403909101815260e08301909152805192019190912061190160f01b6101008301526101028201929092526101228101919091526101420160408051601f198184030181528282528051602091820120600084529083018083525260ff871690820152606081018590526080810184905260a0016020604051602081039080840390855afa1580156110af573d6000803e3d6000fd5b5050604051601f1901519150506001600160a01b038116158015906110e55750876001600160a01b0316816001600160a01b0316145b6111225760405162461bcd60e51b815260206004820152600e60248201526d24a72b20a624a22fa9a4a3a722a960911b60448201526064016108be565b6001600160a01b0390811660009081526004602090815260408083208a8516808552908352928190208990555188815291928a16917f8c5be1e5ebec7d5bd14f71427d1e84f3dd0314c0f7b2291e5b200ac8c7c3b925910160405180910390a350505050505050565b600080600085116111cc5760405162461bcd60e51b815260206004820152600b60248201526a073686172657320697320360ac1b60448201526064016108be565b505060405163a9059cbb60e01b81526001600160a01b03838116600483015260248201859052849182917f0000000000000000000000000000000000000000000000000000000000000000169063a9059cbb906044016020604051808303816000875af1158015611241573d6000803e3d6000fd5b505050506040513d601f19601f82011682018060405250810190611265919061181c565b5060405163a9059cbb60e01b81526001600160a01b038581166004830152602482018390527f0000000000000000000000000000000000000000000000000000000000000000169063a9059cbb906044016020604051808303816000875af11580156112d5573d6000803e3d6000fd5b505050506040513d601f19601f820116820180604052508101906112f9919061181c565b50611304838661145b565b61130c61075e565b60408051838152602081018390529081018690526001600160a01b03808516919086169033907f094577f52c15f75d98e8b7e35fd170e61ac73ad9fb3135eae6674b39828d4d6e9060600160405180910390a4935093915050565b60007f8b73c3c69bb8fe3d512ecc4cf759cc79239f7b179b0ffacaa9a75d522b39400f6000604051611399919061183e565b6040805191829003822060208301939093528101919091527fc89efdaa54c0f20c7adf612882df0950f5a951637e0307cdcb4c672f298b8bc660608201524660808201523060a082015260c00160405160208183030381529060405280519060200120905090565b80600260008282546114139190611730565b90915550506001600160a01b0382166000818152600360209081526040808320805486019055518481526000805160206118de83398151915291015b60405180910390a35050565b6001600160a01b038216600090815260036020526040812080548392906114839084906117cc565b90915550506002805482900390556040518181526000906001600160a01b038416906000805160206118de8339815191529060200161144f565b600060208083528351808285015260005b818110156114ea578581018301518582016040015282016114ce565b506000604082860101526040601f19601f8301168501019250505092915050565b80356001600160a01b038116811461152257600080fd5b919050565b6000806040838503121561153a57600080fd5b6115438361150b565b946020939093013593505050565b60006020828403121561156357600080fd5b5035919050565b6020808252825182820181905260009190848201906040850190845b818110156115a257835183529284019291840191600101611586565b50909695505050505050565b6000806000606084860312156115c357600080fd5b6115cc8461150b565b92506115da6020850161150b565b9150604084013590509250925092565b6000806000606084860312156115ff57600080fd5b83359250602084013591506116166040850161150b565b90509250925092565b60006020828403121561163157600080fd5b61163a8261150b565b9392505050565b600080600080600080600060e0888a03121561165c57600080fd5b6116658861150b565b96506116736020890161150b565b95506040880135945060608801359350608088013560ff8116811461169757600080fd5b9699959850939692959460a0840135945060c09093013592915050565b600080604083850312156116c757600080fd5b6116d08361150b565b91506116de6020840161150b565b90509250929050565b6000806000606084860312156116fc57600080fd5b8335925061170c6020850161150b565b91506116166040850161150b565b634e487b7160e01b600052601160045260246000fd5b808201808211156105625761056261171a565b80820281158282048414176105625761056261171a565b600181811c9082168061176e57607f821691505b60208210810361178e57634e487b7160e01b600052602260045260246000fd5b50919050565b6000826117b157634e487b7160e01b600052601260045260246000fd5b500490565b634e487b7160e01b600052603260045260246000fd5b818103818111156105625761056261171a565b6000602082840312156117f157600080fd5b5051919050565b6001600160a01b039384168152919092166020820152604081019190915260600190565b60006020828403121561182e57600080fd5b8151801515811461163a57600080fd5b600080835481600182811c91508083168061185a57607f831692505b6020808410820361187957634e487b7160e01b86526022600452602486fd5b81801561188d57600181146118a2576118cf565b60ff19861689528415158502890196506118cf565b60008a81526020902060005b868110156118c75781548b8201529085019083016118ae565b505084890196505b50949897505050505050505056feddf252ad1be2c89b69c2b068fc378daa952ba7f163c4a11628f55a4df523b3efa26469706673582212202bc7e6ee171093354976653015bae6568fc47cd1a658c428a258f465e8c8d0ff64736f6c63430008110033",
    "linkReferences": {}
  },
  "methodIdentifiers": {
    "DOMAIN_SEPARATOR()": "3644e515",
    "addLiquidity(uint256,uint256,address)": "87b21efc",
    "allowance(address,address)": "dd62ed3e",
    "approve(address,uint256)": "095ea7b3",
    "asset0()": "c509b6a2",
    "asset1()": "7cd5f3f9",
    "balanceOf(address)": "70a08231",
    "decimals()": "313ce567",
    "name()": "06fdde03",
    "nonces(address)": "7ecebe00",
    "permit(address,address,uint256,uint256,uint8,bytes32,bytes32)": "d505accf",
    "removeLiquidity(uint256,address,address)": "f31abcc4",
    "reserve0()": "443cb4bc",
    "reserve1()": "5a76f25e",
    "reth()": "f5a991d7",
    "sfrxeth()": "a07311af",
    "sharesToAssets(uint256)": "7fe0c850",
    "sharesToUnderlyingAssets(uint256)": "0d94e0ae",
    "swap(uint256,uint256,address)": "6d9a640a",
    "symbol()": "95d89b41",
    "syncReserves()": "5249f13e",
    "totalAssets()": "01e1d114",
    "totalReserves()": "8f840ddd",
    "totalSupply()": "18160ddd",
    "transfer(address,uint256)": "a9059cbb",
    "transferFrom(address,address,uint256)": "23b872dd",
    "wsteth()": "d1d8bce7"
  },
  "id": 29
}